:020000040000FA
:100000000C9454000C947C000C947C000C947C00A8
:100010000C947C000C947C000C947C000C947C0070
:100020000C947C000C947C000C947C000C947C0060
:100030000C947C000C947C000C947C000C947C0050
:100040000C9464020C947C000C9432020C940C020C
:100050000C947C000C947C000C947C000C947C0030
:100060000C947C000C947C0000000000250028000B
:100070002B0000000000240027002A0004040404D0
:100080000404040402020202020203030303030342
:10009000010204081020408001020408102001021F
:1000A0000408102071037F0411241FBECFEFD8E095
:1000B000DEBFCDBF22E0A0E3B1E001C01D92A238B7
:1000C000B207E1F711E0A0E0B1E0E8EFFDE002C027
:1000D00005900D92A033B107D9F710E0C3E5D0E049
:1000E00004C02197FE010E94F704C235D107C9F769
:1000F0000E94BA030C94EF060C94000090E0FC01FF
:10010000E057FF4F249184589F4FFC01849188232E
:1001100099F090E0880F991FFC01EE58FF4FA591D0
:10012000B491FC01E859FF4F859194918FB7F894F1
:10013000EC91E22BEC938FBF0895AF92BF92CF92D8
:10014000DF92EF92FF920F931F93CF93DF936C0197
:100150007B018B01040F151FEB015E01AE18BF0878
:10016000C017D10759F06991D601ED91FC9101902A
:10017000F081E02DC6010995892B79F7C501DF9142
:10018000CF911F910F91FF90EF90DF90CF90BF9094
:10019000AF900895FC01538D448D252F30E0842FBE
:1001A00090E0821B930B541710F0CF96089501979F
:1001B0000895FC01918D828D981761F0A28DAE0F8C
:1001C000BF2FB11D5D968C91928D9F5F9F73928F13
:1001D00090E008958FEF9FEF0895FC01918D828D3F
:1001E000981731F0828DE80FF11D858D90E008950C
:1001F0008FEF9FEF0895FC01918D228D892F90E064
:10020000805C9F4F821B91098F739927089589E322
:1002100091E00E94FB0021E0892B09F420E0822F6D
:10022000089580E090E0892B29F00E940701811158
:100230000C9400000895FC01A48DA80FB92FB11DE6
:10024000A35ABF4F2C91848D90E001968F7399270C
:10025000848FA689B7892C93A089B1898C918370EA
:1002600080648C93938D848D981306C00288F389E3
:10027000E02D80818F7D80830895EF92FF920F9310
:100280001F93CF93DF93EC0181E0888F9B8D8C8D42
:1002900098131AC0E889F989808185FF15C09FB736
:1002A000F894EE89FF896083E889F98980818370F9
:1002B000806480839FBF81E090E0DF91CF911F91A8
:1002C0000F91FF90EF900895F62E0B8D10E00F5FC9
:1002D0001F4F0F731127E02E8C8D8E110CC00FB69F
:1002E00007FCFACFE889F989808185FFF5CFCE0137
:1002F0000E941B01F1CFEB8DEC0FFD2FF11DE35A96
:10030000FF4FF0829FB7F8940B8FEA89FB898081B9
:100310008062CFCFCF93DF93EC01888D8823B9F033
:10032000AA89BB89E889F9898C9185FD03C0808100
:1003300086FD0DC00FB607FCF7CF8C9185FFF2CF7D
:10034000808185FFEDCFCE010E941B01E9CFDF91B7
:10035000CF910895FC0101900020E9F73197AF019A
:10036000481B590BBC0189E391E00C949D00CF938D
:10037000DF93682F89E391E00E943D01EC0188E161
:1003800091E00E94AA018C0F9D1FDF91CF910895EB
:100390008F929F92AF92BF920F931F93CF93DF9351
:1003A000CDB7DEB7A1970FB6F894DEBF0FBECDBFB5
:1003B00019A2423008F44AE08E010F5D1F4F842ECF
:1003C000912CB12CA12CA50194010E94D504E62FFB
:1003D000B901CA01EA30F4F4E05DD801EE938D0171
:1003E000232B242B252B79F790E080E0109719F030
:1003F000CD010E94AA01A1960FB6F894DEBF0FBEF0
:10040000CDBFDF91CF911F910F91BF90AF909F9083
:100410008F900895E95CE1CF1F920F920FB60F9273
:1004200011242F933F934F935F936F937F938F93F9
:100430009F93AF93BF93EF93FF9389E391E00E9463
:100440001B01FF91EF91BF91AF919F918F917F9190
:100450006F915F914F913F912F910F900FBE0F9031
:100460001F9018951F920F920FB60F9211242F9381
:100470008F939F93EF93FF93E0914901F0914A018D
:100480008081E0914F01F091500182FD1BC090816D
:10049000809152018F5F8F7320915301821741F039
:1004A000E0915201F0E0E75CFE4F958F809352019E
:1004B000FF91EF919F918F912F910F900FBE0F9011
:1004C0001F9018958081F4CF1F920F920FB60F9254
:1004D00011242F933F938F939F93AF93BF9380915A
:1004E000350190913601A0913701B09138013091DA
:1004F000340123E0230F2D3758F50196A11DB11DBE
:10050000209334018093350190933601A0933701F5
:10051000B09338018091300190913101A091320166
:10052000B09133010196A11DB11D809330019093CC
:100530003101A0933201B0933301BF91AF919F91EC
:100540008F913F912F910F900FBE0F901F90189594
:1005500026E8230F0296A11DB11DD2CF0F931F9342
:10056000CF93DF93EC0188819981009759F02A811C
:100570003B812617370730F081E0DF91CF911F9143
:100580000F9108958B016F5F7F4F0E9422060097A5
:1005900059F0998388831B830A832C813D81232B07
:1005A00059F7FC011082E8CF80E0E7CF4F925F92CD
:1005B0006F927F928F929F92AF92BF92CF92DF9273
:1005C000EF92FF920F931F93CF93DF93EC017B0188
:1005D0006A0139014C0188E1880E911C5401ECE359
:1005E000AE0EB11C2401F40111821082138212821A
:1005F0001582148270E060E0C4010E94AE02F40132
:100600002081318181115DC02115310519F0C901A9
:100610000E949905F40111821082158214821382BE
:100620001282F6E08F0E911C8A149B04E1F6D98A9F
:10063000C88A7B8A6A8A1D8B0C8BF982E8821D82AC
:100640001C821B821A821F861E861E821F821886AB
:1006500019861A861B861C861D8682E090E09F8B79
:100660008E8B8201CC5ADF4F70E060E0C8010E949F
:10067000AE02F8012081318181112BC02115310595
:1006800019F0C9010E949905F801118210821582A2
:100690001482138212820A5F1F4F0C171D0721F765
:1006A000DF91CF911F910F91FF90EF90DF90CF904E
:1006B000BF90AF909F908F907F906F905F904F9082
:1006C0000895158214826AE171E0C9010E94E8066A
:1006D000A8CF158214826AE171E0C9010E94E80680
:1006E000DACF0F931F93E9E3F1E01382128288EED1
:1006F00093E0A0E0B0E084839583A683B7838AE08B
:1007000091E09183808385EC90E09587848784ECE9
:1007100090E09787868780EC90E0918B808B81ECCE
:1007200090E0938B828B82EC90E0958B848B86ECAF
:1007300090E0978B868B118E128E138E148E0AE0AA
:1007400010E02CE030E04BE050E061E070E08AE245
:1007500092E00E94D60206E010E027E030E048E098
:1007600050E062E070E086ED91E00E94D6021F91B9
:100770000F910895789484B5826084BD84B58160BA
:1007800084BD85B5826085BD85B5816085BD80915C
:100790006E00816080936E001092810080918100D4
:1007A00082608093810080918100816080938100CC
:1007B000809180008160809380008091B10084608E
:1007C0008093B1008091B00081608093B0008091EF
:1007D0007A00846080937A0080917A0082608093AE
:1007E0007A0080917A00816080937A0080917A000B
:1007F000806880937A001092C100E0914901F091E5
:100800004A0182E08083E0914501F0914601108227
:10081000E0914701F091480180E1808310925101FD
:10082000E0914D01F0914E0186E08083E0914B0113
:10083000F0914C01808180618083E0914B01F091C7
:100840004C01808188608083E0914B01F0914C01E4
:10085000808180688083E0914B01F0914C01808120
:100860008F7D80838BE00E947E008CE00E947E0062
:100870008AE00E947E0088E00E947E0087E00E945D
:100880007E0086E00E947E0000E010E0C12CD12CAA
:10089000760189E391E00E94FB00181619062CF5F9
:1008A00089E391E00E94D900C82F4AE0C701B60150
:1008B0000E94C8018CE291E00E94AA018C2F0E9444
:1008C000B701CC3761F44AE0C701B6010E94C80104
:1008D0008BE191E00E94AA018CE70E94B7018FEFA3
:1008E000C81AD80AE80AF80AD4CF0115110571F21E
:1008F0000E940701882351F20E940000C7CFCF93C6
:10090000DF93CAE2D2E0269788819981009711F09F
:100910000E94990581E0CE3ED807A9F7CEE7D2E044
:10092000269788819981009711F00E94990582E0AD
:10093000C234D807A9F7DF91CF9108952F923F9243
:100940004F925F926F927F928F929F92AF92BF92DF
:10095000CF92DF92EF92FF920F931F93CF93DF938B
:10096000CDB7DEB7CA1BDB0B0FB6F894DEBF0FBEE8
:10097000CDBF09942A88398848885F846E847D8435
:100980008C849B84AA84B984C884DF80EE80FD8037
:100990000C811B81AA81B981CE0FD11D0FB6F894AD
:1009A000DEBF0FBECDBFED010895A1E21A2EAA1B36
:1009B000BB1BFD010DC0AA1FBB1FEE1FFF1FA2170F
:1009C000B307E407F50720F0A21BB30BE40BF50B0C
:1009D000661F771F881F991F1A9469F76095709595
:1009E000809590959B01AC01BD01CF010895EE0F5C
:1009F000FF1F0590F491E02D09940F931F93CF935F
:100A0000DF938230910510F482E090E0E091800263
:100A1000F091810230E020E0B0E0A0E0309799F45E
:100A20002115310509F44AC0281B390B2430310542
:100A3000D8F58A819B816115710589F1FB0193834A
:100A40008283FE0111C040815181028113814817C8
:100A50005907E0F04817590799F4109761F012967A
:100A60000C93129713961C933296CF01DF91CF917E
:100A70001F910F9108950093800210938102F4CF8B
:100A80002115310551F04217530738F0A901DB0158
:100A90009A01BD01DF01F801C1CFEF01F9CF9093B9
:100AA000810280938002CDCFFE01E20FF31F81937C
:100AB00091932250310939832883D7CF20917E0228
:100AC00030917F02232B41F42091020130910301E8
:100AD00030937F0220937E0220910001309101012A
:100AE0002115310541F42DB73EB7409104015091D5
:100AF0000501241B350BE0917E02F0917F02E21785
:100B0000F307A0F42E1B3F0B2817390778F0AC0130
:100B10004E5F5F4F2417350748F04E0F5F1F50930D
:100B20007F0240937E02819391939FCFF0E0E0E0BB
:100B30009CCFCF93DF930097E9F0FC0132971382AB
:100B40001282A0918002B0918102ED0130E020E09C
:100B50001097A1F420813181820F931F20917E0292
:100B600030917F022817390709F061C0F0937F02A6
:100B7000E0937E02DF91CF910895EA01CE17DF075F
:100B8000E8F54A815B819E0141155105B1F7E90104
:100B9000FB83EA8349915991C40FD51FEC17FD07D8
:100BA00061F4808191810296840F951FE9019983F8
:100BB0008883828193819B838A83F0E0E0E01296B0
:100BC0008D919C9113970097B9F52D913C911197B8
:100BD000CD010296820F931F20917E0230917F02F9
:100BE0002817390739F6309751F510928102109283
:100BF0008002B0937F02A0937E02BCCFD383C283D6
:100C000040815181840F951FC817D90761F44E5F49
:100C10005F4F88819981480F591F518340838A8192
:100C20009B81938382832115310509F0B0CFF09326
:100C30008102E09380029ECFFD01DC01C0CF1382D0
:100C40001282D7CFB0E0A0E0E8E2F6E00C94A00476
:100C50008C01009751F4CB010E94FD048C01C80166
:100C6000CDB7DEB7E0E10C94BC04FC01E60FF71F42
:100C70009C0122503109E217F30708F49DC0D90105
:100C8000CD91DC911197C617D70798F0C530D105E3
:100C900030F3CE0104978617970708F3C61BD70BCE
:100CA0002297C193D1936D937C93CF010E949905B4
:100CB000D6CF5B01AC1ABD0A4C018C0E9D1EA091D3
:100CC0008002B0918102512C412CF12CE12C109723
:100CD00031F580917E0290917F028815990509F087
:100CE0005CC04616570608F058C0809100019091EC
:100CF0000101009741F48DB79EB7409104015091D6
:100D00000501841B950BE817F90708F055C0F0930F
:100D10007F02E0937E02F90171836083A0CF8D9101
:100D20009C91119712966C90129713967C90139742
:100D3000A815B90559F56C0142E0C40ED11CCA14BE
:100D4000DB0420F1AC014A195B09DA011296159710
:100D500080F06282738251834083D9016D937C93CA
:100D6000E114F10471F0D7011396FC93EE931297FE
:100D700076CF22968C0F9D1FF90191838083F3011A
:100D8000EFCFF0938102E093800269CF48165906B5
:100D900008F42C017D01D3019ACFCB010E94FD0400
:100DA0007C01009749F0AE01B8010E94DF06C8013E
:100DB0000E949905870153CF10E000E050CFFB015E
:100DC000DC0102C001900D9241505040D8F70895C7
:100DD000FB01DC0101900D920020E1F7089510E085
:100DE000C3E5D0E004C0FE010E94F7042196C4359B
:100DF000D107C9F7F894FFCF0000820280000000FD
:100E000000003D019D00CA008A01FB00D900ED00F1
:100E10000D0A003A207A6E61637A6E696B202D2D7F
:080E20002D2D2D2D3A200000BC
:107E0000112484B714BE81FFF0D085E080938100F7
:107E100082E08093C00088E18093C10086E0809377
:107E2000C20080E18093C4008EE0C9D0259A86E02C
:107E300020E33CEF91E0309385002093840096BBD3
:107E4000B09BFECF1D9AA8958150A9F7CC24DD24C4
:107E500088248394B5E0AB2EA1E19A2EF3E0BF2EE7
:107E6000A2D0813461F49FD0082FAFD0023811F036
:107E7000013811F484E001C083E08DD089C08234E0
:107E800011F484E103C0853419F485E0A6D080C0E4
:107E9000853579F488D0E82EFF2485D0082F10E0AE
:107EA000102F00270E291F29000F111F8ED06801E7
:107EB0006FC0863521F484E090D080E0DECF843638
:107EC00009F040C070D06FD0082F6DD080E0C81688
:107ED00080E7D80618F4F601B7BEE895C0E0D1E017
:107EE00062D089930C17E1F7F0E0CF16F0E7DF06D8
:107EF00018F0F601B7BEE89568D007B600FCFDCFD4
:107F0000A601A0E0B1E02C9130E011968C91119780
:107F100090E0982F8827822B932B1296FA010C0160
:107F200087BEE89511244E5F5F4FF1E0A038BF0790
:107F300051F7F601A7BEE89507B600FCFDCF97BE46
:107F4000E89526C08437B1F42ED02DD0F82E2BD052
:107F50003CD0F601EF2C8F010F5F1F4F84911BD097
:107F6000EA94F801C1F70894C11CD11CFA94CF0C13
:107F7000D11C0EC0853739F428D08EE10CD085E9AC
:107F80000AD08FE07ACF813511F488E018D01DD067
:107F900080E101D065CF982F8091C00085FFFCCF94
:107FA0009093C60008958091C00087FFFCCF809118
:107FB000C00084FD01C0A8958091C6000895E0E648
:107FC000F0E098E1908380830895EDDF803219F02E
:107FD00088E0F5DFFFCF84E1DECF1F93182FE3DFCA
:107FE0001150E9F7F2DF1F91089580E0E8DFEE27F6
:047FF000FF270994CA
:027FFE00040479
:00000001FF
